:020000040800F2
:100000000018002049180008A1030008A3030008F5
:1000100000000000000000000000000000000000E0
:10002000000000000000000000000000A503000820
:100030000000000000000000A7030008A90300085A
:10004000C9180008C9180008C9180008C91800080C
:10005000C9180008C9180008C9180008C9180008FC
:10006000C9180008C9180008C9180008C9180008EC
:10007000C9180008C9180008C9180008C9180008DC
:10008000C91800080000000000000000C91800089E
:1000900000000000C9180008C9180008C9180008A5
:1000A00000000000C9180008C9180008C918000895
:1000B000C918000800000000C9180008C918000885
:1000C00010B5064C2378002B07D1054B002B02D02E
:1000D000044800E000BF0123237010BD040000208D
:1000E0000000000024190008044B10B5002B03D0B9
:1000F0000349044800E000BF10BDC04600000000F6
:100100000800002024190008002243088B4274D301
:1001100003098B425FD3030A8B4244D3030B8B4208
:1001200028D3030C8B420DD3FF22090212BA030C11
:100130008B4202D31212090265D0030B8B4219D3F2
:1001400000E0090AC30B8B4201D3CB03C01A524112
:10015000830B8B4201D38B03C01A5241430B8B425A
:1001600001D34B03C01A5241030B8B4201D30B0343
:10017000C01A5241C30A8B4201D3CB02C01A52416A
:10018000830A8B4201D38B02C01A5241430A8B422D
:1001900001D34B02C01A5241030A8B4201D30B0216
:1001A000C01A5241CDD2C3098B4201D3CB01C01A30
:1001B000524183098B4201D38B01C01A524143093A
:1001C0008B4201D34B01C01A524103098B4201D328
:1001D0000B01C01A5241C3088B4201D3CB00C01A95
:1001E000524183088B4201D38B00C01A524143080D
:1001F0008B4201D34B00C01A5241411A00D2014632
:10020000524110467047FFE701B5002000F006F8A4
:1002100002BDC0460029F7D076E770477047C04658
:1002200000B593B03022002106A801F073FB102224
:10023000002101A801F06EFB02230593013B089306
:100240000F33099305A800F017FC0723019300233F
:10025000029303930493002101A800F0AFFF13B0B1
:1002600000BD10B501F0F0F8FFF7DAFF00F006F876
:1002700000F046F8FEE7704770470000F0B589B01F
:100280001422002103A801F045FB1B4B5969802073
:10029000C002014359615A6902400192019A5A69A8
:1002A000802189020A435A615B690B400293029BD9
:1002B00080246400114F00222100380001F020FA50
:1002C0009025ED050022E021280001F019FA0394A1
:1002D0000126049600240594069403A9380001F031
:1002E000D1F8E023039304960594069403A928000B
:1002F00001F0C8F809B0F0BD001002400004004849
:1003000010B50C480C4B036096231B02436000237E
:100310008360C36003610C2242618361C361036235
:10032000436200F04DFB002800D110BDFFF7A3FF92
:10033000FBE7C046200000200044004010B588B014
:1003400004001422002103A801F0E4FA2268124BF1
:100350009A4201D008B010BD104BD9698022920298
:100360001143D961D969114001910199596911432A
:1003700059615B691A400292029B0C2303930A3B6A
:10038000049301330693023B0793902003A9C00511
:1003900001F078F8DEE7C04600440040001002405B
:1003A0007047FEE77047704710B501F05DF810BD6B
:1003B00082B00A4B996901221143996199690A40F7
:1003C0000092009ADA69802149050A43DA61DB6903
:1003D0000B400193019B02B07047C04600100240E1
:1003E00070B50400A04B42689A4200D990E0A3681F
:1003F00080225205934206D0002B04D08022520165
:10040000934200D089E0E3688022520193420AD0EF
:10041000002B08D0C0229201934204D08022920186
:10042000934200D07EE02369002B07D08022D200C7
:10043000934203D0C022D200934278D163690C2248
:100440001900914301D1002B03D188498848FFF757
:1004500013FFA369002B0BD080225200934207D0D8
:100460000132FF32934203D00132FF32934263D113
:10047000236A002B03D080221201934261D1E369E9
:10048000002B03D08022120293425FD1A36822691D
:10049000134362691343E269134321680A6875488C
:1004A000024013430B602268536873490B40E168B4
:1004B0000B435360A269236A1A4321688B686F4813
:1004C000034013438B6025686D4B9D4243D06D4BB9
:1004D0009D4254D0102380221202E169914252D0F1
:1004E000022B00D1A3E000D891E0042B00D1AAE0B8
:1004F000082B00D0B5E06168480880231B029C46A9
:100500006044FFF701FE0004000CE860002063E097
:100510005D495748FFF7B0FE69E75C495448FFF76B
:10052000ABFE70E75A495248FFF7A6FE7BE75949F0
:100530004F48FFF7A1FE81E757494D48FFF79CFE62
:1005400096E756494A48FFF797FE98E754494848C6
:10055000FFF792FE9AE7534B1A6B03231340012BCC
:1005600009D0002B05D0022B07D0032B09D0102374
:10057000B1E70023AFE70423ADE70823ABE700238F
:10058000A9E70223A7E7022B27D00FD9042B2FD0EE
:10059000082B39D16368580880235B029C4660446D
:1005A0006168FFF7B1FD83B200200CE0002B2BD176
:1005B00000F028FF400063685B08C0186168FFF71F
:1005C000A3FD83B200200F22190091435B10083A6B
:1005D00013400B432268D36070BD63685808324BE8
:1005E0009C4660446168FFF78FFD83B20020EAE714
:1005F00000F09AFD400063685B08C0186168FFF76F
:1006000083FD83B20020DEE701200023DBE7002B1F
:1006100027D100F0F7FE63685B08C0186168FFF738
:1006200073FD23680004000CD8600020D4E76168E3
:1006300048081E4B9C466044FFF766FD0004000C12
:10064000E8600020C8E700F06FFD63685B08C01831
:100650006168FFF759FD23680004000CD860002092
:10066000BAE70120B8E7C046808D5B004A08000069
:100670005C190008F369FFEFFFCFFFFFFFF4FFFFF6
:1006800000380140004400404608000047080000D0
:1006900048080000490800004B0800004C08000012
:1006A0004D080000001002400024F40000127A00FF
:1006B00010B50400436AFF2B00D999E0636ADB0799
:1006C0000ED5A36A002B04D080229202934200D060
:1006D00093E0226853686B490B40A16A0B43536057
:1006E000636A9B070ED5E36A002B04D08022520276
:1006F000934200D086E02268536863490B40E16A68
:100700000B435360636A5B070ED5236B002B04D049
:100710008022D202934200D079E0226853685B497C
:100720000B40216B0B435360636A1B070ED5636B51
:10073000002B04D080221202934200D06CE0226889
:10074000536853490B40616B0B435360636ADB068C
:100750000DD5A36B002B03D080225201934260D1B0
:10076000226893684B490B40A16B0B439360636A0B
:100770009B060DD5E36B002B03D0802292019342A0
:1007800054D12268936844490B40E16B0B4393605A
:10079000636A5B061AD5414B22689A4203D04049EE
:1007A0004048FFF769FD236C002B03D080225203E1
:1007B000934240D1226853683B490B40216C0B4364
:1007C000536080235B03226C9A4239D0636A1B0614
:1007D0000DD5A36C002B03D08022120393424BD182
:1007E0002268536831490B40A16C0B43536010BD24
:1007F0002F492C48FFF740FD60E72E492948FFF7B5
:100800003BFD66E72C492748FFF736FD73E72B4988
:100810002448FFF731FD80E729492248FFF72CFDE6
:100820008DE728491F48FFF727FD99E726491D480E
:10083000FFF722FDA5E725491A48FFF71DFDB9E797
:10084000636C002B0BD080229203934207D080224E
:10085000D203934203D0C022D203934207D122682D
:1008600053681B490B40616C0B435360AEE7194959
:100870000C48FFF701FDF2E717490A48FFF7FCFCB7
:10088000AEE7C046FFFFFDFFFFFFFEFFFFFFFBFFE0
:10089000FF7FFFFFFFEFFFFFFFDFFFFF003801409B
:1008A000D80800005C190008FFFFEFFFFFFFF7FF0B
:1008B000A9080000AE080000B5080000BC08000050
:1008C000C3080000CA080000D1080000D9080000D1
:1008D000FFFF9FFFDE080000E6080000F0B5C646F7
:1008E00000B506000C0017009846069D3368DB69CA
:1008F00023401B1B5A425341BB421ED16B1CF5D0F7
:10090000002D05D000F0B8FD4346C01AA842EDD92D
:10091000326813680B490B40136032689368A33147
:10092000FF318B43936020236922B3540132B354C7
:1009300048330022F254032000E0002004BC90461B
:10094000F0BDC0465FFEFFFF30B583B0040000235A
:10095000C36600F091FD05002368174A93420AD050
:1009600020236922A3540132A35448330022E254C5
:10097000002003B030BD1B681B0710D423681B6820
:100980005B07EDD580210D4B00932B000022C9039E
:100990002000FFF7A3FF0028E2D00320E9E7802131
:1009A000064B00930300002289032000FFF796FF07
:1009B0000028E3D00320DCE700380140FFFFFF01FF
:1009C00010B5041E4DD08369002B32D00368264A2F
:1009D000934207D0254A934204D0972149002448E6
:1009E000FFF74AFC6923E35C002B2FD06923242204
:1009F000E2542268136801218B4313602000FFF743
:100A0000EFFC012814D0636A002B26D122685368BA
:100A100018490B405360226893682A218B439360E6
:100A20002268136829390B4313602000FFF78CFFFD
:100A300010BD03680C4A9342D4D00C4A9342D1D0E3
:100A40003421FF310A48FFF717FCCBE76833002257
:100A5000E2542000FFF772FCC8E72000FFF728FEF1
:100A6000D4E70120E4E7C0460038014000440040DC
:100A70005C190008FFB7FFFF70B582B0041E27D0D5
:100A80002368002B01D09B0628D02368DB0742D5C2
:100A90006368012B01D9052B26D1C44B5A680C235E
:100AA0001340042B2FD0C14B5A680C231340082B42
:100AB00020D06368012B5BD0002B70D1BB4B1A6830
:100AC000BB490A401A601A68BA490A401A6055E0E0
:100AD00089214900B848FFF7CFFBD1E71421FF3146
:100AE000B548FFF7C9FBD0E71A21FF31B248FFF73D
:100AF000C3FBD2E7AD4B5B68C02252021340802299
:100B000052029342D5D1A94B1B689B0303D563685E
:100B1000002B00D1FDE223689B0700D48BE0E36843
:100B2000012B62D823691F2B65D8A04B5B680C2270
:100B30001A426FD09D4B5A680C231340082B60D08B
:100B4000E368002B00D19BE0984A136801210B4316
:100B5000136000F091FC0500944B1B689B0700D5C7
:100B600085E000F089FC401B0228F5D90320D3E280
:100B70008E4A116880235B020B4313606368002B6D
:100B800025D000F079FC0500884B1B689B03C2D47C
:100B900000F072FC401B6428F6D90320BCE2052B50
:100BA00009D0824B1A6882490A401A601A68814942
:100BB0000A401A60E2E77D4B19688022D2020A439C
:100BC0001A601968802252020A431A60D6E700F0C0
:100BD00053FC0500754B1B689B039CD500F04CFC37
:100BE000401B6428F6D9032096E24E21FF3172485B
:100BF000FFF742FB96E7A72149006F48FFF73CFB50
:100C000093E76A4B5B68C0225202134080221202B3
:100C1000934295D1654B1B689B0704D5E368012B74
:100C200001D0012078E261490B68F82293432269E0
:100C3000D20013430B6023681B074DD5E369012BDA
:100C400031D8E369002B34D0584A536A01210B4351
:100C5000536200F011FC0500544B5B6A9B073BD4C8
:100C600000F00AFC401B0228F6D9032054E24F4949
:100C70000B68F82293432269D20013430B60DAE732
:100C80004A4A136801218B43136000F0F5FB05000D
:100C9000464B1B689B07CED500F0EEFB401B02289D
:100CA000F6D9032038E2C72149004348FFF7E4FAA8
:100CB000C7E73E4A536A01218B43536200F0DCFBD5
:100CC00005003A4B5B6A9B0706D500F0D5FB401B3D
:100CD0000228F6D903201FE223685B0700D48CE0CA
:100CE000A368012B01D9052B21D1304BDB69DB0037
:100CF00023D42E4AD169802040050143D161D369B4
:100D000003400193019B01252C4B1B68DB0516D585
:100D1000A368012B27D0002B3CD1244B1A6A012158
:100D20008A431A621A6A03318A431A6220E0DD217B
:100D300049002148FFF7A0FAD7E70025E4E71F4A5A
:100D4000116880235B000B43136000F095FB0600E5
:100D50001A4B1B68DB05DBD400F08EFB801B64287C
:100D6000F6D90320D8E1114A136A01210B4313621B
:100D7000A368002B30D000F07FFB06000B4B1B6AF2
:100D80009B0738D400F078FB801B0D4B9842F5D9B7
:100D90000320C1E1052B15D0044B1A6A01218A43B7
:100DA0001A621A6A03318A431A62E1E700100240AC
:100DB000FFFFFEFFFFFFFBFF9419000800700040DB
:100DC00088130000BC4B1A6A04210A431A621A6A8B
:100DD00003390A431A62CBE700F04EFB0600B64B1C
:100DE0001B6A9B0707D500F047FB801BB34B98425B
:100DF000F5D9032090E1012D45D02368DB0618D5F5
:100E00006369012B01D9053343D1A3691F2B46D850
:100E10006369012B48D0053366D1A74A536B04217F
:100E20008B435363536BF4318B43A169C9000B436C
:100E3000536323689B0600D495E0236A012B6AD88C
:100E40009D4B5A680C2313400C2B70D09A4B5A6858
:100E50000C231340082B63D0236A002B70D0964AD2
:100E6000516B80235B020B43536300F005FB0500CD
:100E7000914B5B6BDB0376D400F0FEFA401B02283B
:100E8000F6D9032048E18C4AD3698D490B40D361E0
:100E9000B3E7802189008B48FFF7EEF9B5E78A496F
:100EA0008848FFF7E9F9B3E7834B5A6B04210A43FB
:100EB0005A635A6B03390A435A6300F0DDFA05009E
:100EC0007D4B5B6B9B0706D400F0D6FA401B0228D3
:100ED000F6D9032020E178494B6BF8229343A269AD
:100EE000D20013434B63A4E7734B5A6B04210A43AC
:100EF0005A635A6B03398A435A6300F0BDFA0500FE
:100F00006D4B5B6B9B0794D500F0B6FA401B022833
:100F1000F6D9032000E16D496A48FFF7ADF98FE784
:100F2000654B5B68C02252021340934294D1624BDE
:100F30005B6BDB0317D5236A012B14D00120EBE098
:100F40005D4A536B62490B40536300F095FA05000C
:100F5000594B5B6BDB0306D500F08EFA401B022871
:100F6000F6D90320D8E0636A022B6BD8636A002BA2
:100F700000D1D0E0504A51680C220A40082A00D122
:100F8000CCE0022B00D0AFE0A36A80221202934291
:100F900007D0C0225202934203D0802252029342D1
:100FA00056D1E36A002B37D08022D202934233D04D
:100FB0008022120393422FD0C022120393422BD0DF
:100FC00080225203934227D0A0225203934223D07F
:100FD000C022520393421FD0E022520393421BD0FF
:100FE00080229203934217D090229203934213D00F
:100FF000A022920393420FD0B022920393420BD0CF
:10100000C0229203934207D0D0229203934203D08E
:10101000E0229203934220D1236B0F2B22D8264A41
:1010200013682C490B40136000F026FA0500224B90
:101030001B689B011BD500F01FFA401B0228F6D944
:10104000032069E09D2189001E48FFF715F98DE70F
:1010500021491C48FFF710F9A3E720491948FFF779
:101060000BF9D9E71E491748FFF706F9D7E7124BE6
:10107000DA6A0F218A43216B0A43DA625A681949F6
:101080000A40E16AA06A01430A435A601968802253
:1010900052040A431A6000F0EFF90400064B1B6883
:1010A0009B0106D400F0E8F9001B0228F6D90320C2
:1010B00032E0002030E0C0460010024088130000FB
:1010C000FFFFFFEF94190008010200003E0200003C
:1010D000FFFFFEFFFFFFFFFE7D0200007E0200001B
:1010E0007F020000FF7FC2FF0D4A13680D490B40CD
:1010F000136000F0C1F90400094B1B689B0106D581
:1011000000F0BAF9001B0228F6D9032004E0002001
:1011100002E0012000E0002002B070BD0120FBE7EA
:1011200000100240FFFFFFFE30B589B004AA1F4B3C
:10113000180032C832C2110002680A606A461033D1
:1011400013CB13C21B681360194B5A680C2313404E
:10115000082B04D00C2B26D0164809B030BD910CBA
:101160000F23194004A8445C1149C96A0B40694621
:10117000C95CC0235B021A4080235B029A4208D0FC
:10118000C0235B029A4209D00A48FEF7BDFF6043C4
:10119000E3E70848FEF7B8FF6043DEE70648FEF7DE
:1011A000B3FF6043D9E70448D7E7C0463C190008BD
:1011B0000010024000127A00006CDC0270B50400DE
:1011C0000D00002816D023685B0718D0012D1BD80E
:1011D0007D4B1A6801231340AB421BD27A490B683E
:1011E000012293432B430B600B681A40AA4211D093
:1011F000012070BD75497648FFF73EF8E3E7754971
:101200007348FFF739F8E1E7B72189007048FFF725
:1012100033F8DDE723689B0719D5A368002B0FD0AF
:10122000802B0DD0902B0BD0A02B09D0B02B07D04A
:10123000C02B05D0D02B03D0E02B01D0F02B19D13F
:10124000654A5368F0218B43A1680B4353602368C0
:10125000DB0771D56368032B11D86368012B13D0AA
:10126000022B33D0032B37D05B4A1268920710D47D
:101270000120BEE759495648FEF7FEFFE0E758490E
:101280005348FEF7F9FFE8E7534A1268920300D487
:1012900097E051494A680320824313434B6000F0B2
:1012A000EBF806006368012B1CD0022B28D0032B1F
:1012B00034D0494B5B680C221A423DD000F0DCF878
:1012C000801B484B9842F4D9032092E7424A1268A7
:1012D0009201DED401208CE73F4A526BD203D8D46E
:1012E000012086E73C4B5A680C231340042B23D083
:1012F00000F0C2F8801B3B4B9842F3D9032078E7FB
:10130000354B5A680C231340082B15D000F0B4F865
:10131000801B344B9842F3D903206AE72E4B5A685E
:101320000C2313400C2B07D000F0A6F8801B2D4B8C
:101330009842F3D903205CE7234B1A68012313403A
:10134000AB420BD920490B68012293432B430B601E
:101350000B681A40AA4201D001204AE723685B07C4
:1013600019D5E368002B0FD08022D20093420BD016
:101370000132FF32934207D00132FF32934203D051
:101380000132FF32934217D1134A536816490B407A
:10139000E1680B435360FFF7C7FE0F4B5A68120911
:1013A0000F231340114AD35CD840114B1860002022
:1013B00000F038F800201CE70E490548FEF75CFFF6
:1013C000E2E7012015E7C04600200240DA020000F3
:1013D00094190008DB02000000100240F302000034
:1013E000FA02000088130000FFF8FFFF3C1A000813
:1013F0000000002063030000014B18687047C046DE
:101400000000002010B5FFF7F7FF044B5A68120ADE
:1014100007231340024AD35CD84010BD001002409D
:101420004C1A000810B50400FFF7E6FFFA21890006
:10143000FEF76AFE00F0BCF90120002221004042C4
:1014400000F07AF9002010BD10B5064A136810218B
:101450000B4313600020FFF7E5FFFEF7A9FF002014
:1014600010BDC04600200240024A136801331360D9
:101470007047C04690000020014B18687047C04676
:1014800090000020F0B5D6464F464646C0B582B023
:1014900007000C009023DB0598420CD08B4B984240
:1014A00009D08B4B984206D08A4B984203D0C12179
:1014B0008948FEF7E1FE23681A0401D01B0C03D013
:1014C000C2218548FEF7D8FE6368012B19D9112B7C
:1014D00017D0022B15D0122B13D0804A934210D074
:1014E0007F4A93420DD07F4A93420AD07E4A93426C
:1014F00007D07E4A934204D07D4A934201D0032B09
:1015000004D1A368022B06D8002584E0C3217248C9
:10151000FEF7B2FEF5E7C4216F48FEF7ADFEF3E734
:10152000D4216D48FEF7A8FE95E0E368012B02D9AF
:10153000032B00D0B9E0BA684B461A40E368514625
:101540008B401343BB607A6843469A43636819092A
:1015500001230B40AB4013437B60FA684B461A40B3
:10156000A36851468B401343FB606368DB0051D591
:10157000604A916901231943916192691340019373
:10158000019BAB089A1C92005B49505803222A40E9
:1015900092000F21914088439021C9058F4200D1CC
:1015A0008AE04A498F4200D188E049498F4200D100
:1015B00080E0052191400A00024302339B004E491E
:1015C0005A504E4B1A68F343110019406068C0032B
:1015D00001D532431100494A116052681100194087
:1015E0006068800301D532431100444A516092681B
:1015F000110019406068C00201D5324311003F4A12
:101600009160D26813406168890201D533001343A9
:101610003A4AD360013526683200EA4050D00122B0
:10162000AA4090461640F5D06368022B01D0122BD9
:1016300020D19023DB059F4209D0244B9F4206D046
:10164000244B9F4203D0D3212348FEF715FE236984
:10165000062B00D964E7EB0808339B00D959072211
:101660002A4092000F209040814320699040020060
:101670000A43DA513A686B009A4603231900504630
:101680008140C94389460A4061680B408340134347
:101690003B6063685A1E012A00D846E7112B00D12F
:1016A00043E7122B00D058E73FE7E8210A48FEF74E
:1016B000E3FD40E702217DE700217BE7012179E797
:1016C00002B01CBC90469946A246F0BD00040048FA
:1016D0000008004800140048CC1900080000111050
:1016E0000000211000003110000012100000221034
:1016F00000003210001002400000014000040140D0
:1017000070B506000C001500002905D0012D09D880
:10171000002D0DD1B46270BDD62149000548FEF7F9
:10172000ABFDF3E7AE21FF310248FEF7A5FDEFE781
:10173000B461F0E7CC19000870B504000D0003296E
:1017400013D8002C16DBA1081648C03189000A58AE
:1017500003231C40E400FC331E00A640B243AD014D
:101760002B40A34013430B5070BD9B210E48FEF746
:1017700083FDE6E7E4B20F232340083B9B080633D2
:101780009B000A4A94466344586803210C40E400D5
:10179000FF221100A1408843AD012A40A24002432C
:1017A0005A60E1E700E100E0041A000800ED00E003
:1017B00001380A4B98420FD8094A50600948036A19
:1017C0001B021B0AC02109060B430362002393601E
:1017D00007331360002070470120FCE7FFFFFF0084
:1017E00010E000E000ED00E0114B1A6801210A430F
:1017F0001A605A680F4802405A601A680E48024040
:101800001A601A680D4802401A605A680C48024073
:101810005A60DA6A0F208243DA621A6B0948024082
:101820001A635A6B8A435A6300229A607047C04613
:10183000001002400CB8FF08FFFFF6FEFFFFFBFFA1
:10184000FFFFC0FF2CFEFFFF1348854613480168C9
:10185000090E134A914205D11248134901601348F9
:101860001349016013481449144A002302E0D45874
:10187000C4500433C4188C42F9D3114A114C0023CC
:1018800001E013600432A242FBD3FFF7ADFF00F08A
:101890001DF8FEF7E6FCFEE700180020040000003B
:1018A0001F0000001810024001000000000001406D
:1018B0000000000000000020040000205C1A000866
:1018C0000400002094000020FEE7000070B5002610
:1018D0000C4D0D4C641BA410A64209D1002600F04B
:1018E00021F80A4D0A4C641BA410A64205D170BD14
:1018F000B300EB5898470136EEE7B300EB58984732
:101900000136F2E7541A0008541A0008541A000865
:10191000581A000803001218934200D1704719703A
:101920000133F9E7F8B5C046F8BC08BC9E467047DD
:0C193000F8B5C046F8BC08BC9E467047E5
:10193C0002030405060708090A0B0C0D0E0F101004
:10194C000102030405060708090A0B0C0D0E0F1003
:10195C00447269766572732F53544D333246307826
:10196C00785F48414C5F4472697665722F5372639D
:10197C002F73746D3332663078785F68616C5F7585
:10198C006172742E63000000447269766572732F65
:10199C0053544D3332463078785F48414C5F447233
:1019AC00697665722F5372632F73746D33326630A0
:1019BC0078785F68616C5F7263632E63000000006F
:1019CC00447269766572732F53544D3332463078B6
:1019DC00785F48414C5F4472697665722F5372632D
:1019EC002F73746D3332663078785F68616C5F6723
:1019FC0070696F2E63000000447269766572732FF4
:101A0C0053544D3332463078785F48414C5F4472C2
:101A1C00697665722F5372632F73746D333266302F
:101A2C0078785F68616C5F636F727465782E6300A1
:101A3C000000000000000000010203040607080972
:081A4C00000000000102030488
:041A5400E90000089D
:041A5800C1000008C1
:041A5C0000127A00FA
:04000005080018498E
:00000001FF
